:1000000001308A009B2900000A108A100A11820719
:1000100028340F340134063449234D2A201930196D
:1000200032100D05000049234D2A201930193210D5
:10003000A5310000273084008313000803192D2800
:100040000630F800F701F70B2328F80B22287B3045
:10005000F700F70B2928800B202808002E183228DB
:10006000081233280816831608128312AE183A288D
:1000700088123B2888168316881283122E1942286C
:10008000081343280817831608138312AE194A2849
:1000900088134B28881783168813891083128914B4
:1000A00083168910831289100800831609118312A0
:1000B0000911AB08031D5E2809115F280915831675
:1000C0000911A630F700F70B63280000891083128E
:1000D00089102C0EAD000F30AD052D08AE002E207E
:1000E0002C080F39AD00AE002E2008008316081230
:1000F000831208128316881283128812831608133B
:100100008312081383168813831288138316091128
:100110008312091183168910831289100F30A700EA
:100120001A200130A2002208033C031C9F28033040
:10013000AE002E200530A7001A20A20A9328023014
:10014000AE002E20A2012208033C031CB028220886
:100150000420A300AB012308AC005520A20AA32869
:100160008A110A12AB2926080C3A0319C128063A4B
:100170000319C928073A0319C928053A0319DF28C2
:10018000E428AB010130AC0055200230A7001A2052
:10019000E9280130A7000230A800280BD028D32876
:1001A0004030A900D428A90101302702A907290855
:1001B0008038AA00AB012A08AC005520E928AB0121
:1001C0001030AC005520E9280130AB002608AC0007
:1001D000552008000B08A2008B13831603178C17F9
:1001E0000C140000000083120313A21B8B170317CB
:1001F0000C087F3903193E290313A20003170D08C9
:100200000313A30003170F080313A4002208A6007A
:10021000B320230803178D000313240803178F004E
:1002200003130B08A5008B13831603178C170C14EC
:100230000000000083120313A51B8B1703170C0D7E
:100240000E0D7F3903193E290313A20003170D0871
:100250000313A30003170F080313A4002208A6002A
:10026000B320230803178D000313240803178F00FE
:100270008D0A03198F0A0313EA28031703138A113F
:100280000A12BA290B08A3008B13831603178C17C5
:100290000C140000000083120313A31B8B17031818
:1002A000792903170C087F390313A30003170D08DE
:1002B0000313A40003170F080313A5002308A600C7
:1002C000B320240803178D000313250803178F009C
:1002D00003130B08A6008B13831603178C170C143B
:1002E0000000000083120313A61B8B17A20B7929B1
:1002F000982903170C0D0E0D7F390313A300031764
:100300000D080313A40003170F080313A500230807
:10031000A600B320240803178D0003132508031734
:100320008F008D0A03198F0A03100313A20B4229B1
:100330008A110A12DB2903081F39830083161F1450
:100340009F141F159F1107309C0083136430831284
:10035000A7001A2076286430A7001A206130A10077
:100360000C30A600B3200C3003178D0000308F0036
:100370000313EA284C30A600B3204330A600B32074
:100380004430A600B32083168810831288140C30E2
:10039000A200FA30A7001A20A20BC9290C30A6002F
:1003A000B320133003178D0000308F0003100A3084
:1003B0000313A20042292108A600B3204C30A60056
:1003C000B3204330A600B3204430A600B3208316E8
:1003D0008810831288100C30A200FA30A7001A206F
:0803E000A20BED29AE29630018
:02400E00323F3F
:00000001FF
;PIC16F877A
;CRC=3DF0  CREATED="09-out-22 12:48"
