:1000000003308A003F2B0000FF00030E8301A10094
:100010000A08A0008A010408A2007708A300780853
:10002000A4007908A5007A08A60003170D08031399
:10003000A70003170F080313A80003170C080313E6
:10004000A90003170E080313AA00831383128B1D44
:100050002B280B184C28220884002308F7002408BA
:10006000F8002508F9002608FA00270803178D0074
:100070000313280803178F000313290803178C00A4
:1000800003132A0803178E00031320088A00210E89
:100090008300FF0E7F0E09008A110A126B280A10D6
:1000A0008A100A11820728340F34013406343E3096
:1000B00084008313000803196A280630F800F7014A
:1000C000F70B6028F80B5F287B30F700F70B6628EA
:1000D000800B5D2808000B108B11DC30BB00BC01CD
:1000E000BD013B083C02031C7828BB08031D8D2979
:1000F000BD08031D8D298316061083120610831672
:100100008610831286148316061183120615831631
:100110008611831286151430BE00572083160616EA
:100120008312061A9A28831606168312061E93282F
:100130003130BD00831686168312861AA6288316D0
:1001400086168312861E9F283430BD00831606173C
:100150008312061BB228831606178312061FAB28CC
:100160003730BD00831686178312861BBE28831680
:1001700086178312861FB7282A30BD008316061003
:1001800083120614831686108312861083160611B6
:100190008312061583168611831286151430BE004D
:1001A0005720831606168312061ADD2883160616B4
:1001B0008312061ED6283230BD008316861683129F
:1001C000861AE928831686168312861EE2283530A1
:1001D000BD00831606178312061BF5288316061723
:1001E0008312061FEE283830BD008316861783124F
:1001F000861B0129831686178312861FFA28303042
:10020000BD0083160610831206148316861083120F
:100210008614831606118312061183168611831223
:1002200086151430BE005720831606168312061A50
:100230002029831606168312061E19293330BD00A5
:10024000831686168312861A2C2983168616831225
:10025000861E25293630BD00831606178312061B1D
:100260003829831606178312061F31293930BD003D
:10027000831686178312861B4429831686178312DA
:10028000861F3D292330BD008316061083120614F5
:1002900083168610831286148316061183120615A0
:1002A00083168611831286111430BE0057208316E0
:1002B00006168312061A6329831606168312061E73
:1002C0005C294130BD00831686168312861A6F2979
:1002D000831686168312861E68294230BD00831657
:1002E00006178312061B7B29831606178312061F27
:1002F00074294330BD00831686178312861B872915
:10030000831686178312861F80294430BD0005306E
:10031000BE0057200530BC077128BD08031D922977
:10032000FF30BD003D08F8007808AC002D122D0804
:10033000831687001030831287068B150B108A11E5
:100340000A122B288C24C6265410321832190000A9
:100350000C1020102010D422432641224F102010D0
:10036000201000010C21753AF4376E10A531000001
:100370000C1020102010D422432641224F104C1084
:10038000201020003A18C6290812C729081683161B
:1003900008128312BA18CE298812CF29881683161C
:1003A000881283123A19D6290813D72908178316F9
:1003B00008138312BA19DE298813DF2988178316D8
:1003C0008813891083128914831689108312891067
:1003D00008008316091183120911B708031DF229B9
:1003E0000911F329091583160911A630F700F70B37
:1003F000F7290000891083128910380EB9000F30D8
:10040000B9053908BA00C22138080F39B900BA0055
:10041000C22108008316081283120812831688125C
:100420008312881283160813831208138316881305
:1004300083128813831609118312091183168910F8
:1004400083128910AB018B1BAB178B130F30BE00CF
:100450005720AB1B8B170130AE002E08033C031C4A
:100460003F2A0330BA00C221AB018B1BAB178B13A1
:100470000530BE005720AB1B8B17AE0A2D2A023069
:10048000BA00C221AE012E08033C031C502A2E08DC
:100490004F20AF00B7012F08B800E921AE0A432A68
:1004A0008A110A125E2B32080C3A0319612A063AA5
:1004B00003196F2A073A03196F2A053A0319852A87
:1004C0008A2AB7010130B800E921AB018B1BAB17B9
:1004D0008B130230BE005720AB1B8B178F2A0130C5
:1004E000B3000230B400340B762A792A4030B500CC
:1004F0007A2AB50101303302B50735088038B600D5
:10050000B7013608B800E9218F2AB7011030B800CA
:10051000E9218F2A0130B7003208B800E92108002C
:100520000B08AE008B13831603178C170C140000F6
:10053000000083120313AE1B8B1703170C087F39BF
:100540000319E42A0313AE0003170D080313AF00C9
:1005500003170F080313B0002E08B20053222F0810
:1005600003178D000313300803178F0003130B08C4
:10057000B1008B13831603178C170C1400000000B6
:1005800083120313B11B8B1703170C0D0E0D7F394C
:100590000319E42A0313AE0003170D080313AF0079
:1005A00003170F080313B0002E08B20053222F08C0
:1005B00003178D000313300803178F008D0A0319EA
:1005C0008F0A0313902A0317031308000B08AF00C8
:1005D0008B13831603178C170C1400000000831272
:1005E0000313AF1B8B1703181D2B03170C087F3940
:1005F0000313AF0003170D080313B00003170F0810
:100600000313B1002F08B2005322300803178D00E6
:100610000313310803178F0003130B08B2008B1369
:10062000831603178C170C140000000083120313A9
:10063000B21B8B17AE0B1D2B3C2B03170C0D0E0D95
:100640007F390313AF0003170D080313B00003171E
:100650000F080313B1002F08B2005322300803170C
:100660008D000313310803178F008D0A03198F0AB9
:1006700003100313AE0BE62A8A110A129C2B0308FF
:100680001F398300FF30AD0083161F149F141F1500
:100690009F1107309C008313F03086008113831272
:1006A0000B108B15C0308B04AB018B1BAB178B135E
:1006B0006430BE005720AB1B8B170A2AAB018B1B83
:1006C000AB178B136430BE005720AB1B8B17A230C7
:1006D00003178D0001308F00031390220430AE0009
:1006E000AB018B1BAB178B13FA30BE005720AB1B33
:1006F0008B17AE0B702BA83003178D0001308F00C5
:10070000031390220830AE00AB018B1BAB178B1389
:10071000FA30BE005720AB1B8B17AE0B842B2C0F6F
:10072000922BA02BB23003178D0001308F000310E5
:1007300008300313AE00E62A2C08B2005322A72B80
:10074000B83003178D0001308F00031390228F2BD8
:02075000630044
:02400E00323F3F
:00000001FF
;PIC16F877A
;CRC=1F1F  CREATED="09-out-22 14:17"
