:1000000004308A00812C0000FF00030E8301A10050
:100010000A08A0008A010408A2007708A300780853
:10002000A4007908A5007A08A60003170D08031399
:10003000A70003170F080313A80003170C080313E6
:10004000A90003170E080313AA00831383128B1D44
:100050002B280B184C28220884002308F7002408BA
:10006000F8002508F9002608FA00270803178D0074
:100070000313280803178F000313290803178C00A4
:1000800003132A0803178E00031320088A00210E89
:100090008300FF0E7F0E09008A110A126B280A10D6
:1000A0008A100A11820728340F3401340634AB3029
:1000B00084008313000803196A280630F800F7014A
:1000C000F70B6028F80B5F287B30F700F70B6628EA
:1000D000800B5D2808000B10831608100130831276
:1000E0008806831606168312061E85288316861632
:1000F0008312861E8528831606178312061F8528FD
:10010000831686178312861BEA290F308316A800F0
:10011000A901AA0128082902031C9128A808031D87
:10012000D029AA08031DD0290610831206108316B1
:100130008610831286148316061183120615831601
:1001400086118312861505308316AB008312572063
:10015000831606168312061AB6288316061683120D
:10016000061EAD2831308316AA0083128316861628
:100170008312861AC428831686168312861EBB280D
:1001800034308316AA008312831606178312061BC7
:10019000D228831606178312061FC9283730831604
:1001A000AA008312831686178312861BE028831603
:1001B00086178312861FD7282A308316AA00831237
:1001C0008316061083120614831686108312861077
:1001D000831606118312061583168611831286155F
:1001E00005308316AB008312572083160616831240
:1001F000061A0329831606168312061EFA283230C1
:100200008316AA008312831686168312861A112972
:10021000831686168312861E082935308316AA0097
:100220008312831606178312061B1F2983160617CF
:100230008312061F162938308316AA0083128316EC
:1002400086178312861B2D29831686178312861F15
:10025000242930308316AA008312831606108312D5
:1002600006148316861083128614831606118312D1
:100270000611831686118312861505308316AB008E
:1002800083125720831606168312061A50298316E6
:1002900006168312061E472933308316AA008312DE
:1002A000831686168312861A5E2983168616831293
:1002B000861E552936308316AA0083128316061728
:1002C0008312061B6C29831606178312061F6329E7
:1002D00039308316AA008312831686178312861B71
:1002E0007A29831686178312861F71292330831675
:1002F000AA00831283160610831206148316861032
:10030000831286148316061183120615831686112E
:100310008312861105308316AB0083125720831693
:1003200006168312061A9D29831606168312061EC8
:10033000942941308316AA008312831686168312ED
:10034000861AAB29831686168312861EA22942308E
:100350008316AA008312831606178312061BB92977
:10036000831606178312061FB02943308316AA008E
:100370008312831686178312861BC7298316861756
:100380008312861FBE2944308316AA0083120130CF
:100390008316AB008312572005308316A9078A28DD
:1003A000AA08031DD529FF30AA002A08F8007808FA
:1003B0008312AC0083160610831206108316861073
:1003C0008312861083160611831206118316861176
:1003D000831286110B108A110A122B288C296F3672
:1003E0003110D41275052518B23ABA123019F51623
:1003F0002518B23ABA12301975008C24C62654104A
:10040000321832190000831627180A2A831208129C
:100410000C2A83168312081683160812A718142AAA
:1004200083128812162A831683128816831688125E
:1004300027191E2A83120813202A831683120817ED
:1004400083160813A719282A831288132A2A8316C9
:1004500083128817831688138910831289148316D0
:10046000891083128910080083160911831209115B
:100470008316A408031D402A83120911422A8316F9
:100480008312091583160911A630F700F70B462AC7
:1004900000008910831289108316250EA6000F30E4
:1004A000A6052608A70083120322831625080F3904
:1004B000A600A700831203220800831608128312E5
:1004C0000812831688128312881283160813831267
:1004D0000813831688138312881383160911831255
:1004E00009118316891083128910AB018B1BAB177E
:1004F0008B130F308316AB0083125720AB1B8B1767
:100500000130ED006D08033C031C982A033083166C
:10051000A70083120322AB018B1BAB178B13053093
:100520008316AB0083125720AB1B8B17ED0A822A70
:1005300002308316A70083120322ED016D08033CED
:10054000031CAF2A6D084F20EE008316A40183120E
:100550006E088316A50083123422ED0A9E2A8A11A2
:100560000A12F82C7E080C3A0319C02A063A03191D
:10057000D22A073A0319D22A053A0319EA2AF12A9C
:100580008316A4010130A50083123422AB018B1B1A
:10059000AB178B1302308316AB0083125720AB1BB3
:1005A0008B17F82A01308316A0000230A100210B1E
:1005B000DA2ADD2A4030A200DE2AA2010130200220
:1005C000A20722088038A300A4012308A5008312F3
:1005D0003422F82A8316A4011030A5008312342295
:1005E000F82A01308316A4007E08A5008312342265
:1005F00008000B08ED008B13831603178C170C14DF
:100600000000000083120313ED1B8B1703170C0867
:100610007F390319502B0313ED0003170D08031343
:10062000EE0003170F080313EF006D08FE00B2225F
:100630006E0803178D0003136F0803178F00031351
:100640000B08F0008B13831603178C170C14000093
:100650000000F01F302B831203138B178316031730
:1006600083120C0D0E0D7F390319502B0313ED006F
:1006700003170D080313EE0003170F080313EF0011
:100680006D08FE00B2226E0803178D0003136F0879
:1006900003178F008D0A03198F0A0313F92A031712
:1006A00003138A110A120A2D7B08F8017602031837
:1006B0005C2B7608F700682BF7010830FC00F60D7C
:1006C000F70D7B0877020318F700F80DFC0B5F2B82
:1006D000080078087408F6006430FB00542377089B
:1006E000F40078083030031D7C2BF51C832BF519A2
:1006F000832B751A20307F2BF51175127514F807AE
:100700007808FE00B2227408F6000A30FB00542379
:100710007708F40078083030031D942BF519982BD6
:10072000751C982B751A2030F8077808FE00B22245
:100730003030F4077408FE00B2220800ED016E1498
:100740006E1C7E2C01306D07EF006D0DF700F70D6C
:10075000FC30F70577082D3E840083130008F00075
:100760006D0DF700F70DFC30F7057708013E2D3EC3
:10077000840083130008F1006D0DF700F70DFC30C5
:10078000F7057708023E2D3E840083130008F2002F
:100790006D0DF700F70DFC30F7057708033E2D3E91
:1007A000840083130008F300EE3003178D0001303E
:1007B0008F0003100730F40003130B08FB008B13AA
:1007C000831603178C170C1400000000FB1FED2B81
:1007D000831203138B17831603170318142C831229
:1007E0000C087F39FB000D08FC000F08FD007B089A
:1007F000FE000313B2227C0803178D007D088F00D2
:1008000003130B08FE008B13831603178C170C14AD
:1008100000000000FE1F112C831203138B17831698
:100820000317F40B142C2D2C83120C0D0E0D7F3995
:10083000FB000D08FC000F08FD007B08FE00031301
:10084000B2227C0803178D007D088F008D0A0319E2
:100850008F0A0310F40BDC2B8316831203136F082B
:10086000F4001B30F50069230A30FE00B222700844
:10087000F4000130F50069233A30FE00B22271081D
:10088000F4000130F50069232D30FE00B222720819
:10089000F4000130F50069233A30FE00B2227308FB
:1008A000F4000130F50069232C08443C031D602C42
:1008B0006D08023C031C602CED0AFF30AC006D2C6F
:1008C0002C08433C031D6B2CED0803196B2CED0326
:1008D000FF30AC006D2CFF30AC00AB018B1BAB17B5
:1008E0008B1396308316AB0083125720AB1B8B17EC
:1008F00083168810023083128806A02B8A110A12F0
:100900000B2D03081F39830083161F149F141F1516
:100910009F1107309C0083130D308312AD00AE0190
:100920000E30AF001E30B0001130B1001E30B200EA
:100930001330B300B401B501B6010230B700143072
:10094000B800B901BA01BB01BC01BD01BE01BF01C4
:10095000C001C101C201C301C401C501C601C70173
:10096000C801C901CA01CB01CC01CD01CE01CF0123
:10097000D001D101D201D301D401D501D601D701D3
:10098000D801D901DA01DB01DC01DD01DE01DF0183
:10099000E001E101E201E301E401E501E601E70133
:1009A000E801E901EA01EB01EC01F0308316860071
:1009B0008113061083120610831686108312861088
:1009C000831606118312061183168611831286116F
:1009D0000B108B15C0308B04AB018B1BAB178B132B
:1009E00064308316AB0083125720AB1B8B175D2A34
:1009F000AB018B1BAB178B1364308316AB008312D8
:100A00005720AB1B8B17FD3003178D0001308F0073
:100A10000313F92A9E2B831688100230831288064E
:100A20000430ED00AB018B1BAB178B13FA30831630
:100A3000AB0083125720AB1B8B17ED0B122D0B2D28
:020A4000630051
:02400E00323F3F
:00000001FF
;PIC16F877A
;CRC=DFDB  CREATED="11-out-22 18:44"
