:1000000006308A00AB2E0000FF00030E8301A10022
:100010000A08A0008A010408A2007708A300780853
:10002000A4007908A5007A08A60003170D08031399
:10003000A70003170F080313A80003170C080313E6
:10004000A90003170E080313AA00831383128B1D44
:100050002B280B184C28220884002308F7002408BA
:10006000F8002508F9002608FA00270803178D0074
:100070000313280803178F000313290803178C00A4
:1000800003132A0803178E00031320088A00210E89
:100090008300FF0E7F0E09008A110A126B280A10D6
:1000A0008A100A11820728340F3401340634AB3029
:1000B00084008313000803196A280630F800F7014A
:1000C000F70B6028F80B5F287B30F700F70B6628EA
:1000D000800B5D2808000B10831608100130831276
:1000E0008806831606168312061E85288316861632
:1000F0008312861E8528831606178312061F8528FD
:10010000831686178312861BEA290F308316A800F0
:10011000A901AA0128082902031C9128A808031D87
:10012000D029AA08031DD0290610831206108316B1
:100130008610831286148316061183120615831601
:1001400086118312861505308316AB008312572063
:10015000831606168312061AB6288316061683120D
:10016000061EAD2831308316AA0083128316861628
:100170008312861AC428831686168312861EBB280D
:1001800034308316AA008312831606178312061BC7
:10019000D228831606178312061FC9283730831604
:1001A000AA008312831686178312861BE028831603
:1001B00086178312861FD7282A308316AA00831237
:1001C0008316061083120614831686108312861077
:1001D000831606118312061583168611831286155F
:1001E00005308316AB008312572083160616831240
:1001F000061A0329831606168312061EFA283230C1
:100200008316AA008312831686168312861A112972
:10021000831686168312861E082935308316AA0097
:100220008312831606178312061B1F2983160617CF
:100230008312061F162938308316AA0083128316EC
:1002400086178312861B2D29831686178312861F15
:10025000242930308316AA008312831606108312D5
:1002600006148316861083128614831606118312D1
:100270000611831686118312861505308316AB008E
:1002800083125720831606168312061A50298316E6
:1002900006168312061E472933308316AA008312DE
:1002A000831686168312861A5E2983168616831293
:1002B000861E552936308316AA0083128316061728
:1002C0008312061B6C29831606178312061F6329E7
:1002D00039308316AA008312831686178312861B71
:1002E0007A29831686178312861F71292330831675
:1002F000AA00831283160610831206148316861032
:10030000831286148316061183120615831686112E
:100310008312861105308316AB0083125720831693
:1003200006168312061A9D29831606168312061EC8
:10033000942941308316AA008312831686168312ED
:10034000861AAB29831686168312861EA22942308E
:100350008316AA008312831606178312061BB92977
:10036000831606178312061FB02943308316AA008E
:100370008312831686178312861BC7298316861756
:100380008312861FBE2944308316AA0083120130CF
:100390008316AB008312572005308316A9078A28DD
:1003A000AA08031DD529FF30AA002A08F8007808FA
:1003B0008312AC0083160610831206108316861073
:1003C0008312861083160611831206118316861176
:1003D000831286110B108A110A122B288C296F3672
:1003E0003110D41275052518B23ABA123019F51623
:1003F0002518B23ABA12301975008C296F363210AE
:10040000D41275052518B23ABA123019F516251806
:10041000B23ABA12301975008C296F363310D412E3
:1004200075052518B23ABA123019F5162518B23AE0
:10043000BA12301975008C296F363410D412750534
:100440002518B23ABA123019F5162518B23ABA126E
:10045000301975008C24C626541032183219000049
:100460008C2252294F1D0A276F10D3376C10D332BC
:10047000EC32633A6532000083162718432A831250
:100480000812452A83168312081683160812A71825
:100490004D2A831288124F2A8316831288168316D8
:1004A00088122719572A83120813592A8316831290
:1004B000081783160813A719612A83128813632A61
:1004C0008316831288178316881389108312891460
:1004D000831689108312891008008316091183126C
:1004E00009118316A408031D792A831209117B2A96
:1004F00083168312091583160911A630F700F70B2E
:100500007F2A00008910831289108316250EA60009
:100510000F30A6052608A70083123C228316250863
:100520000F39A600A70083123C2208008316081288
:1005300083120812831688128312881283160813F6
:1005400083120813831688138312881383160911E4
:10055000831209118316891083128910AB018B1B3A
:10056000AB178B130F308316AB0083125720AB1BD6
:100570008B170130EE006E08033C031CD12A0330B8
:100580008316A70083123C22AB018B1BAB178B1386
:1005900005308316AB0083125720AB1B8B17EE0A76
:1005A000BB2A02308316A70083123C22EE016E089C
:1005B000033C031CE82A6E084F20EF008316A401B9
:1005C00083126F088316A50083126D22EE0AD72AC4
:1005D0008A110A12222F7E080C3A0319F92A063AC8
:1005E00003190B2B073A03190B2B053A0319232B7D
:1005F0002A2B8316A4010130A50083126D22AB01C2
:100600008B1BAB178B1302308316AB008312572062
:10061000AB1B8B17312B01308316A0000230A100D9
:10062000210B132B162B4030A200172BA2010130F7
:100630002002A20722088038A300A4012308A500F5
:1006400083126D22312B8316A4011030A500831272
:100650006D22312B01308316A4007E08A500831281
:100660006D2208000B08EE008B13831603178C17FE
:100670000C140000000083120313EE1B8B170317EA
:100680000C087F390319852B0313EE0003170D089F
:100690000313EF0003170F08F00003136E08FE00AA
:1006A000EB226F0803178D0070088F0003130B08EF
:1006B000F1008B13831603178C170C140000000035
:1006C000F11F672B831203138B17831603178312F3
:1006D0000C0D0E0D7F390319852B0313EE00031744
:1006E0000D080313EF0003170F08F00003136E0843
:1006F000FE00EB226F0803178D0070088F008D0A33
:1007000003198F0A0313322B0317031308000B0876
:10071000FB008B13831603178C170C1400000000CA
:10072000FB1F972B831203138B17831603170318D2
:10073000BE2B83120C087F39FB000D08FC000F084C
:10074000FD007B08FE000313EB227C0803178D00DD
:100750007D088F0003130B08FE008B13831603170D
:100760008C170C1400000000FE1FBB2B8312031318
:100770008B1783160317F50BBE2BDA2B83120C0D88
:100780000E0D7F39FB000D08FC000F08FD007B08F3
:10079000FE000313EB227C0803178D007D088F00F9
:1007A0008D0A03198F0A0310F50BD72BD92B0313CE
:1007B000872B83168312031308007C08F8017B0241
:1007C0000318E52B7B08F700F12BF7010830FD003B
:1007D000FB0DF70D7C0877020318F700F80DFD0BF1
:1007E000E82B080078087508FB006430FC00DD2366
:1007F0007708F50078083030031D052CF61C0C2C0A
:10080000F6190C2C761A2030082CF6117612761474
:10081000F8077808FE00EB227508FB000A30FC00A0
:10082000DD237708F50078083030031D1D2CF619FC
:10083000212C761C212C761A2030F8077808FE002F
:10084000EB223030F5077508FE00EB220800EE01C0
:100850006F146F1CC02C01306E07F0006E0DF70096
:10086000F70DFC30F70577082E3E8400831300084F
:10087000F1006E0DF700F70DFC30F7057708013E2B
:100880002E3E840083130008F2006E0DF700F70D72
:10089000FC30F7057708023E2E3E840083130008E3
:1008A000F3006E0DF700F70DFC30F7057708033EF7
:1008B0002E3E840083130008F400EE3003178D00F1
:1008C00001308F0003100730F500031387237008F1
:1008D000F5001B30F600F2230A30FE00EB2271080F
:1008E000F5000130F600F2233A30FE00EB227208E8
:1008F000F5000130F600F2232D30FE00EB227308E4
:10090000F5000130F600F2233A30FE00EB227408C5
:10091000F5000130F600F2232C08443C031D982C0E
:100920006E08023C031C982CEE0AFF30AC00AF2C82
:100930002C08433C031DA32CEE080319A32CEE0343
:10094000FF30AC00AF2C2C08413C031DAD2C023015
:10095000AD00FF30AC006F10AF2CFF30AC00AB012E
:100960008B1BAB178B1396308316AB00831257206B
:10097000AB1B8B1783168810023083128806292C34
:100980008A110A12392FEE016F146F1C662D013087
:100990006E07F0006E0DF700F70DFC30F7057708D5
:1009A0003E3E840083130008F1006E0DF700F70D42
:1009B000FC30F7057708013E3E3E840083130008B3
:1009C000F2006E0DF700F70DFC30F7057708023ED8
:1009D0003E3E840083130008F3006E0DF700F70D10
:1009E000FC30F7057708033E3E3E84008313000881
:1009F000F400FD3003178D0001308F000310073025
:100A0000F500031387237008F5001B30F600F2236E
:100A10000A30FE00EB227108F5000130F600F223E7
:100A20003A30FE00EB227208F5000130F600F223A6
:100A30002D30FE00EB227308F5000130F600F223A2
:100A40003A30FE00EB227408F5000130F600F22384
:100A50002C08443C031D342D6E08023C031C342D2D
:100A6000EE0AFF30AC00552D2C08433C031D3F2DF2
:100A7000EE0803193F2DEE03FF30AC00552D2C0876
:100A8000413C031D492D0330AD00FF30AC006F1019
:100A9000552D2C08423C031D532D0130AD00FF3075
:100AA000AC006F10552DFF30AC00AB018B1BAB17AA
:100AB0008B1396308316AB0083125720AB1B8B171A
:100AC00083168810023083128806C52C8A110A12F8
:100AD0003F2FEE016F146F1C0C2E01306E07F000DB
:100AE0006E0DF700F70DFC30F70577084E3E8400D9
:100AF00083130008F1006E0DF700F70DFC30F705C9
:100B00007708013E4E3E840083130008F2006E0D0C
:100B1000F700F70DFC30F7057708023E4E3E8400E3
:100B200083130008F3006E0DF700F70DFC30F70596
:100B30007708033E4E3E840083130008F4000C3017
:100B400003178D0002308F0003100730F5000313E8
:100B500087237008F5001B30F600F2230A30FE00F0
:100B6000EB227108F5000130F600F2233A30FE0066
:100B7000EB227208F5000130F600F2232D30FE0062
:100B8000EB227308F5000130F600F2233A30FE0044
:100B9000EB227408F5000130F600F2232C08443CE7
:100BA000031DDA2D6E08023C031CDA2DEE0AFF301D
:100BB000AC00FB2D2C08433C031DE52DEE0803196A
:100BC000E52DEE03FF30AC00FB2D2C08413C031D4E
:100BD000EF2D0430AD00FF30AC006F10FB2D2C0862
:100BE000423C031DF92D0230AD00FF30AC006F1008
:100BF000FB2DFF30AC00AB018B1BAB178B1396307A
:100C00008316AB0083125720AB1B8B1783168810FB
:100C10000230831288066B2D8A110A12452FEE01CD
:100C20006F146F1CA82E01306E07F0006E0DF700D8
:100C3000F70DFC30F70577085E3E8400831300084B
:100C4000F1006E0DF700F70DFC30F7057708013E57
:100C50005E3E840083130008F2006E0DF700F70D6E
:100C6000FC30F7057708023E5E3E840083130008DF
:100C7000F3006E0DF700F70DFC30F7057708033E23
:100C80005E3E840083130008F4001B3003178D00C0
:100C900002308F0003100730F5000313872370081C
:100CA000F5001B30F600F2230A30FE00EB2271083B
:100CB000F5000130F600F2233A30FE00EB22720814
:100CC000F5000130F600F2232D30FE00EB22730810
:100CD000F5000130F600F2233A30FE00EB227408F2
:100CE000F5000130F600F2232C08443C031D802E51
:100CF0006E08023C031C802EEE0AFF30AC00972EDB
:100D00002C08433C031D8B2EEE0803198B2EEE039B
:100D1000FF30AC00972E2C08423C031D952E03306B
:100D2000AD00FF30AC006F10972EFF30AC00AB0170
:100D30008B1BAB178B1396308316AB008312572097
:100D4000AB1B8B1783168810023083128806112E76
:100D50008A110A124B2F03081F39830083161F14B0
:100D60009F141F159F1107309C0083130D308312B1
:100D7000AE00AF010E30B0001E30B1001130B20035
:100D80001E30B3001330B400B501B601B701023014
:100D9000B8001430B900BA01BB01BC01BD01BE01ED
:100DA000BF01C001C101C201C301C401C501C60127
:100DB000C701C801C901CA01CB01CC01CD01CE01D7
:100DC000CF01D001D101D201D301D401D501D60187
:100DD000D701D801D901DA01DB01DC01DD01DE0137
:100DE000DF01E001E101E201E301E401E501E601E7
:100DF000E701E801E901EA01EB01EC01ED01F03066
:100E0000831686008113061083120610831686103F
:100E1000831286108316061183120611831686111B
:100E2000831286110B108B15C0308B04AB018B1B0A
:100E3000AB178B1364308316AB0083125720AB1BA8
:100E40008B17962AAB018B1BAB178B136430831661
:100E5000AB0083125720AB1B8B172A3003178D0072
:100E600002308F00031332230130AD002D0B3A2FD7
:100E7000272C5E2F2D08023C031D402FC32C5E2F14
:100E80002D08033C031D462F692D5E2F2D08043CC1
:100E9000031D4C2F0F2E5E2F303003178D000230B4
:100EA0008F0003133223AB018B1BAB178B13C8309E
:100EB0008316AB0083125720AB1B8B17362F6300B2
:02400E00323F3F
:00000001FF
;PIC16F877A
;CRC=7B3F  CREATED="11-out-22 20:34"
