:1000000000308A0018280000223084008313000882
:10001000031917280630F800F701F70B0D28F80B25
:100020000C287B30F700F70B1328800B0A280800F8
:1000300003081F398300FF30A00083161F149F148C
:100040001F159F1107309C0083138312A0112008F5
:100050008316870083128715A01120088316870056
:100060008312871520122008831687008312071237
:100070000230A100FA30A2000420A10B3A2820127D
:10008000200883168700831207160230A100FA3079
:0C009000A2000420A10B47282C286300CC
:02400E00723FFF
:00000001FF
;PIC16F877A
;CRC=2701  CREATED="04-out-22 09:15"
