:1000000002308A00C92A00000A108A100A118207E9
:1000100028340F34013406348C24C6265410321888
:10002000321900000C1020102010D4224326412247
:100030004F102010201000010C21753AF4376E107B
:10004000A5310000273084008313000803193528E8
:100050000630F800F701F70B2B28F80B2A287B3025
:10006000F700F70B3128800B282808002E183A28B3
:1000700008123B280816831608128312AE1842286D
:100080008812432888168316881283122E194A284C
:1000900008134B280817831608138312AE19522829
:1000A000881353288817831688138910831289149C
:1000B0008316891083128910080083160911831290
:1000C0000911AB08031D6628091167280915831655
:1000D0000911A630F700F70B6B2800008910831276
:1000E00089102C0EAD000F30AD052D08AE00362066
:1000F0002C080F39AD00AE00362008008316081218
:10010000831208128316881283128812831608132A
:100110008312081383168813831288138316091118
:100120008312091183168910831289100F30A700DA
:1001300022200130A2002208033C031CA728033020
:10014000AE0036200530A7002220A20A9B280230EC
:10015000AE003620A2012208033C031CB828220866
:100160000420A300AB012308AC005D20A20AAB2849
:100170008A110A12DE2A26080C3A0319C928063AFF
:100180000319D128073A0319D128053A0319E7289A
:10019000EC28AB010130AC005D200230A70022202A
:1001A000F1280130A7000230A800280BD828DB284E
:1001B0004030A900DC28A90101302702A90729083D
:1001C0008038AA00AB012A08AC005D20F128AB0101
:1001D0001030AC005D20F1280130AB002608AC00E7
:1001E0005D2008000B08A2008B13831603178C17E1
:1001F0000C140000000083120313A21B8B170317BB
:100200000C087F39031946290313A20003170D08B0
:100210000313A30003170F080313A4002208A6006A
:10022000BB20230803178D000313240803178F0036
:1002300003130B08A5008B13831603178C170C14DC
:100240000000000083120313A51B8B1703170C0D6E
:100250000E0D7F39031946290313A20003170D0859
:100260000313A30003170F080313A4002208A6001A
:10027000BB20230803178D000313240803178F00E6
:100280008D0A03198F0A0313F228031703130800BA
:10029000A301A40122082302031C5129A208031D63
:1002A000662AA408031D662A831606108312061008
:1002B0008316861083128614831606118312061580
:1002C00083168611831286150530A7002220831617
:1002D00006168312061A7329831606168312061E43
:1002E0006C293130A400831686168312861A7F2962
:1002F000831686168312861E78293430A40083164E
:1003000006178312061B8B29831606178312061FF6
:1003100084293730A400831686178312861B9729F9
:10032000831686178312861F90292A30A40083160D
:100330000610831206148316861083128610831605
:100340000611831206158316861183128615053051
:10035000A7002220831606168312061AB6298316D2
:1003600006168312061EAF293230A40083168616A5
:100370008312861AC229831686168312861EBB290B
:100380003530A400831606178312061BCE29831668
:1003900006178312061FC7293830A4008316861754
:1003A0008312861BDA29831686178312861FD329A8
:1003B0003030A400831606108312061483168610AC
:1003C0008312861483160611831206118316861172
:1003D000831286150530A700222083160616831285
:1003E000061AF929831606168312061EF2293330DF
:1003F000A400831686168312861A052A831686168B
:100400008312861EFE293630A40083160617831237
:10041000061B112A831606178312061F0A2A393073
:10042000A400831686178312861B1D2A831686173F
:100430008312861F162A2330A40083160610831207
:1004400006148316861083128614831606118312EF
:10045000061583168611831286110530A700222007
:10046000831606168312061A3C2A83160616831272
:10047000061E352A4130A400831686168312861A7A
:10048000482A831686168312861E412A4230A4000B
:10049000831606178312061B542A83160617831227
:1004A000061F4D2A4330A400831686178312861B2D
:1004B000602A831686178312861F592A4430A400A7
:1004C0000130A70022200530A3074A29A408031DF4
:1004D0006B2AFF30A4002408F8008A110A12062BA8
:1004E0000B08A3008B13831603178C170C14000042
:1004F000000083120313A31B8B170318A72A0317EB
:100500000C087F390313A30003170D080313A4007D
:1005100003170F080313A5002308A600BB20240817
:1005200003178D000313250803178F0003130B080F
:10053000A6008B13831603178C170C140000000001
:1005400083120313A61B8B17A20BA72AC62A031715
:100550000C0D0E0D7F390313A30003170D080313B1
:10056000A40003170F080313A5002308A600BB204F
:10057000240803178D000313250803178F008D0A25
:1005800003198F0A03100313A20B702A8A110A128F
:10059000152B03081F398300FF30A00083161F149A
:1005A0009F141F159F1107309C008313F0308600A5
:1005B000811364308312A70022207E286430A700B4
:1005C00022200C3003178D0000308F000313F2201F
:1005D0000430A200FA30A7002220A20BEA2A12302F
:1005E00003178D0000308F000313F2200830A200A3
:1005F000FA30A7002220A20BF82A20122008831626
:100600008700831207161430A20048297808A10039
:10061000210F0B2B182B1C3003178D0000308F007F
:10062000031008300313A200702A2108A600BB2083
:0A0630001E30A7002220032B6300F8
:02400E00323F3F
:00000001FF
;PIC16F877A
;CRC=19EF  CREATED="11-out-22 00:49"
