:1000000000308A007C280000FF00030E8301A1005D
:100010000A08A0008A010408A2007708A300780853
:10002000A4007908A5007A08A600831383128B1E0A
:100030001B280B192C28220884002308F700240809
:10004000F8002508F9002608FA0020088A00210E89
:100050008300FF0E7F0E09008A110A122F2828083C
:10006000FA002708A70A0319A80AAE007A08AF0009
:100070002E08363C031D46282F0B462883160812EF
:10008000103083128806A8010130A7002A08FA0060
:100090002908A90A0319AA0AAE007A08AF002E0897
:1000A0001F3C031D5F282F08023C031D5F28831699
:1000B0008811083083128806AA010130A9002C0893
:1000C000FA002B08AB0A0319AC0AAE007A08AF009D
:1000D0002E08433C031D78282F08033C031D782875
:1000E00083160811043083128806AC010130AB007E
:1000F0000B118A110A121B2803081F398300A8015B
:100100000130A700AA01A900AC01AB0083161F149F
:100110009F141F159F1107309C00831388018312C1
:1001200088012D1083160108C73908388100831211
:100130008B16C0308B042D1086192D142D1CA92868
:1001400083168810831288148316081083120810EF
:10015000B12883160810831208148316881083129E
:0601600088109B286300DB
:02400E00723FFF
:00000001FF
;PIC16F877A
;CRC=4C25  CREATED="01-set-22 22:00"
