:1000000003308A005C2B0000FF00030E8301A10077
:100010000A08A0008A010408A2007708A300780853
:10002000A4007908A5007A08A60003170D08031399
:10003000A70003170F080313A80003170C080313E6
:10004000A90003170E080313AA00831383128B1D44
:100050002B280B184C28220884002308F7002408BA
:10006000F8002508F9002608FA00270803178D0074
:100070000313280803178F000313290803178C00A4
:1000800003132A0803178E00031320088A00210E89
:100090008300FF0E7F0E09008A110A126B280A10D6
:1000A0008A100A11820728340F34013406343E3096
:1000B00084008313000803196A280630F800F7014A
:1000C000F70B6028F80B5F287B30F700F70B6628EA
:1000D000800B5D2808000B10831608100130831276
:1000E0008806831606168312061E85288316861632
:1000F0008312861E8528831606178312061F8528FD
:10010000831686178312861BC5292D122D08831688
:1001100087001030831287060F30BB00BC01BD0181
:100120003B083C02031C9728BB08031DAC29BD08F3
:10013000031DAC2983160610831206108316861041
:1001400083128614831606118312061583168611F0
:10015000831286150530BE005720831606168312BB
:10016000061AB928831606168312061EB2283130E5
:10017000BD00831686168312861AC5288316861636
:100180008312861EBE283430BD00831606178312E4
:10019000061BD128831606178312061FCA2837307C
:1001A000BD00831686178312861BDD2883168617EB
:1001B0008312861FD6282A30BD00831606108312AC
:1001C0000614831686108312861083160611831276
:1001D000061583168611831286150530BE0057203A
:1001E000831606168312061AFC2883160616831237
:1001F000061EF5283230BD00831686168312861A35
:100200000829831686168312861E01293530BD0003
:10021000831606178312061B1429831606178312EA
:10022000061F0D293830BD00831686178312861BE2
:100230002029831686178312861F19293030BD00A6
:1002400083160610831206148316861083128614F2
:1002500083160611831206118316861183128615E2
:100260000530BE005720831606168312061A3F2952
:10027000831606168312061E38293330BD008316F6
:1002800086168312861A4B29831686168312861EBB
:1002900044293630BD00831606178312061B5729E2
:1002A000831606178312061F50293930BD008316A6
:1002B00086178312861B6329831686178312861F6F
:1002C0005C292330BD0083160610831206148316A2
:1002D0008610831286148316061183120615831660
:1002E0008611831286110530BE005720831606162C
:1002F0008312061A8229831606168312061E7B298C
:100300004130BD00831686168312861A8E29831605
:1003100086168312861E87294230BD008316061773
:100320008312061B9A29831606178312061F932928
:100330004330BD00831686178312861BA6298316B9
:1003400086178312861F9F294430BD000130BE00EE
:1003500057200530BC079028BD08031DB129FF3088
:10036000BD003D08F8007808AC0083160610831223
:1003700006108316861083128610831606118312C8
:10038000061183168611831286110B108A110A1228
:100390002B288C24C62654103218321900000C1059
:1003A00020102010D422432641224F10201020106C
:1003B00000010C21753AF4376E10A53100003A188F
:1003C000E3290812E4290816831608128312BA18C2
:1003D000EB298812EC2988168316881283123A19A1
:1003E000F3290813F4290817831608138312BA197E
:1003F000FB298813FC298817831688138910831218
:100400008914831689108312891008008316091134
:1004100083120911B708031D0F2A0911102A0915A3
:1004200083160911A630F700F70B142A0000891073
:1004300083128910380EB9000F30B9053908BA0097
:10044000DF2138080F39B900BA00DF210800831610
:1004500008128312081283168812831288128316D8
:1004600008138312081383168813831288138316C4
:100470000911831209118316891083128910AB01A7
:100480008B1BAB178B130F30BE005720AB1B8B178A
:100490000130AE002E08033C031C5C2A0330BA0076
:1004A000DF21AB018B1BAB178B130530BE00572030
:1004B000AB1B8B17AE0A4A2A0230BA00DF21AE010D
:1004C0002E08033C031C6D2A2E084F20AF00B701F5
:1004D0002F08B8000622AE0A602A8A110A12892B58
:1004E00032080C3A03197E2A063A03198C2A073A75
:1004F00003198C2A053A0319A22AA72AB701013049
:10050000B8000622AB018B1BAB178B130230BE0069
:100510005720AB1B8B17AC2A0130B3000230B4005C
:10052000340B932A962A4030B500972AB501013042
:100530003302B50735088038B600B7013608B80071
:100540000622AC2AB7011030B8000622AC2A0130CE
:10055000B7003208B800062208000B08AE008B1363
:10056000831603178C170C1400000000831203136A
:10057000AE1B8B1703170C087F390319012B0313CC
:10058000AE0003170D080313AF0003170F08031382
:10059000B0002E08B20070222F0803178D0003133D
:1005A000300803178F0003130B08B1008B13831659
:1005B00003178C170C140000000083120313B11BE7
:1005C0008B1703170C0D0E0D7F390319012B031325
:1005D000AE0003170D080313AF0003170F08031332
:1005E000B0002E08B20070222F0803178D000313ED
:1005F000300803178F008D0A03198F0A0313AD2AE1
:100600000317031308000B08AF008B13831603179F
:100610008C170C140000000083120313AF1B8B1700
:1006200003183A2B03170C087F390313AF00031785
:100630000D080313B00003170F080313B1002F08B0
:10064000B2007022300803178D000313310803171E
:100650008F0003130B08B2008B13831603178C173C
:100660000C140000000083120313B21B8B17AE0B97
:100670003A2B592B03170C0D0E0D7F390313AF00C6
:1006800003170D080313B00003170F080313B1007D
:100690002F08B2007022300803178D0003133108B1
:1006A00003178F008D0A03198F0A03100313AE0B73
:1006B000032B8A110A12C72B03081F398300FF304E
:1006C000AD0083161F149F141F159F1107309C0047
:1006D0008313F030860081130610831206108316F0
:1006E0008610831286108316061183120611831654
:1006F0008611831286110B108B15C0308B04AB0151
:100700008B1BAB178B136430BE005720AB1B8B17B2
:10071000272AAB018B1BAB178B136430BE0057200D
:10072000AB1B8B17C93003178D0001308F000313EB
:10073000AD220430AE00AB018B1BAB178B13FA302C
:10074000BE005720AB1B8B17AE0B9B2BCF30031774
:100750008D0001308F000313AD220430AE00AB01D9
:100760008B1BAB178B13FA30BE005720AB1B8B17BC
:10077000AE0BAF2B2C0FBD2BCA2BD93003178D001E
:1007800001308F00031008300313AE00032B2C0838
:10079000B200702283168810023083128806FF3060
:1007A000AC00AB018B1BAB178B13C830BE005720BE
:0807B000AB1B8B17BA2B630091
:02400E00323F3F
:00000001FF
;PIC16F877A
;CRC=BC8A  CREATED="11-out-22 00:55"
