:1000000002308A00D32A00000A108A100A118207DF
:1000100028340F34013406348C24C6265410321888
:10002000321900000C1020102010D4224326412247
:100030004F102010201000010C21753AF4376E107B
:10004000A53100000C1020102010D422432641229C
:100050004F104C102010200027308400831300081C
:1000600003193F280630F800F701F70B3528F80B85
:1000700034287B30F700F70B3B28800B3228080030
:100080002E184428081245280816831608128312D1
:10009000AE184C2888124D288816831688128312B1
:1000A0002E1954280813552808178316081383128D
:1000B000AE195C2888135D28881783168813891069
:1000C00083128914831689108312891008008316FD
:1000D000091183120911AB08031D70280911712839
:1000E000091583160911A630F700F70B75280000D3
:1000F0008910831289102C0EAD000F30AD052D082C
:10010000AE0040202C080F39AD00AE0040200800A2
:10011000831608128312081283168812831288121B
:100120008316081383120813831688138312881307
:1001300083160911831209118316891083128910FD
:100140000F30A7002C200130A2002208033C031C22
:10015000B1280330AE0040200530A7002C20A20AB1
:10016000A5280230AE004020A2012208033C031C57
:10017000C22822080420A300AB012308AC0067209A
:10018000A20AB5288A110A12E52A26080C3A031990
:10019000D328063A0319DB28073A0319DB28053A66
:1001A0000319F128F628AB010130AC0067200230BA
:1001B000A7002C20FB280130A7000230A800280B44
:1001C000E228E5284030A900E628A90101302702ED
:1001D000A90729088038AA00AB012A08AC006720CB
:1001E000FB28AB011030AC006720FB280130AB00CE
:1001F0002608AC00672008000B08A2008B138316AA
:1002000003178C170C140000000083120313A21BA9
:100210008B1703170C087F39031950290313A20009
:1002200003170D080313A30003170F080313A400FB
:100230002208A600C520230803178D0003132408F5
:1002400003178F0003130B08A5008B1383160317E6
:100250008C170C140000000083120313A51B8B17CE
:1002600003170C0D0E0D7F39031950290313A2003B
:1002700003170D080313A30003170F080313A400AB
:100280002208A600C520230803178D0003132408A5
:1002900003178F008D0A03198F0A0313FC28031715
:1002A00003130800A301A40122082302031C5B29F5
:1002B000A208031D702AA408031D702A83160610C5
:1002C0008312061083168610831286148316061175
:1002D0008312061583168611831286151430A70023
:1002E0002C2083160814831208187D2983160814FD
:1002F0008312081C76293130A400831688148312D7
:1003000088188929831688148312881C822934301E
:10031000A400831608158312081995298316081559
:100320008312081D8E293730A40083168815831286
:100330008819A129831688158312881D9A292A30C5
:10034000A4008316061083120614831686108312E7
:1003500086108316061183120615831686118312E2
:1003600086151430A7002C20831608148312081851
:10037000C029831608148312081CB9293230A4003E
:100380008316881483128818CC2983168814831244
:10039000881CC5293530A400831608158312081956
:1003A000D829831608158312081DD1293830A400D6
:1003B0008316881583128819E429831688158312F9
:1003C000881DDD293030A400831606108312061420
:1003D0008316861083128614831606118312061163
:1003E00083168611831286151430A7002C208316DD
:1003F000081483120818032A831608148312081C91
:10040000FC293330A40083168814831288180F2A1D
:10041000831688148312881C082A3630A400831699
:100420000815831208191B2A831608158312081D44
:10043000142A3930A4008316881583128819272AB4
:10044000831688158312881D202A2330A400831662
:1004500006108312061483168610831286148316E0
:100460000611831206158316861183128611143025
:10047000A7002C208316081483120818462A831616
:1004800008148312081C3F2A4130A40083168814E4
:1004900083128818522A831688148312881C4B2AC8
:1004A0004230A40083160815831208195E2A8316A9
:1004B00008158312081D572A4330A4008316881597
:1004C000831288196A2A831688158312881D632A65
:1004D0004430A4000530A7002C200530A307542980
:1004E000A408031D752AFF30A4002408F8008A110F
:1004F0000A120D2B0B08A3008B13831603178C17FE
:100500000C140000000083120313A31B8B170318A5
:10051000B12A03170C087F390313A30003170D0832
:100520000313A40003170F080313A5002308A60054
:10053000C520240803178D000313250803178F0017
:1005400003130B08A6008B13831603178C170C14C8
:100550000000000083120313A61B8B17A20BB12A05
:10056000D02A03170C0D0E0D7F390313A3000317B8
:100570000D080313A40003170F080313A500230895
:10058000A600C520240803178D00031325080317B0
:100590008F008D0A03198F0A03100313A20B7A2A06
:1005A0008A110A121C2B03081F398300FF30A00098
:1005B00083161F149F141F159F1107309C0083136F
:1005C00064308312A7002C2088286430A7002C20D8
:1005D0000C3003178D0000308F000313FC20043013
:1005E000A200FA30A7002C20A20BF12A1230031728
:1005F0008D0000308F000313FC200830A200FA3079
:10060000A7002C20A20BFF2A2012200883168700A7
:1006100083120716DC30A20052297808A100210FAE
:10062000122B202B1C3003178D0000308F0003107D
:1006300008300313A2007A2A2108A600C520272B20
:10064000223003178D0000308F000313FC200A2B8B
:02065000630045
:02400E00323F3F
:00000001FF
;PIC16F877A
;CRC=5AA9  CREATED="29-set-22 19:18"
