:1000000002308A00DC2A00000A108A100A118207D6
:1000100028340F34013406348C24EE34E334613751
:10002000E4372E172E000C2AC926451DA0123019C0
:10003000751D2518B23ABA12301975004030840087
:1000400083130008031931280630F800F701F70B75
:100050002728F80B26287B30F700F70B2D28800B7C
:10006000242808004718362808123728081683164F
:1000700008128312C7183E2888123F288816831654
:100080008812831247194628081347280817831631
:1000900008138312C7194E2888134F288817831610
:1000A000881389108312891483168910831289108A
:1000B00008008316091183120911C408031D622860
:1000C00009116328091583160911A630F700F70BEB
:1000D00067280000891083128910450EC6000F3072
:1000E000C6054608C700322045080F39C600C700BC
:1000F0003220080083160812831208128316881211
:100100008312881283160813831208138316881328
:10011000831288138316091183120911831689101B
:10012000831289100F30C0001E200130B80038083B
:10013000033C031CA3280330C70032200530C00055
:100140001E20B80A97280230C7003220B8013808AC
:10015000033C031CB42838080420B900C401390842
:10016000C5005920B80AA7288A110A12FE2A3F089A
:100170000C3A0319C528063A0319CD28073A031982
:10018000CD28053A0319E328E828C4010130C50049
:1001900059200230C0001E20ED280130C00002307E
:1001A000C100410BD428D7284030C200D828C20152
:1001B00001304002C20742088038C300C40143082E
:1001C000C5005920ED28C4011030C5005920ED2884
:1001D0000130C4003F08C500592008000B08B800D2
:1001E0008B13831603178C170C1400000000831266
:1001F0000313B81B8B1703170C087F390319422907
:100200000313B80003170D080313B90003170F08F1
:100210000313BA003808BF00B720390803178D0050
:1002200003133A0803178F0003130B08BB008B134B
:10023000831603178C170C1400000000831203139D
:10024000BB1B8B1703170C0D0E0D7F3903194229A9
:100250000313B80003170D080313B90003170F08A1
:100260000313BA003808BF00B720390803178D0000
:1002700003133A0803178F008D0A03198F0A03131B
:10028000EE28031703138A110A12082B94138C11FA
:100290003C0893000230941B54298C1D4D290030DA
:1002A0008316111B01308312F80008001413831603
:1002B00091159119592977189112771C91161116D9
:1002C000111A602983121308F80008000E30BA00D2
:1002D0008316111411186A29D0308312BC004621EC
:1002E0003A08BC0046218316911491187529D13023
:1002F0008312BC004621F70156217808BB00831603
:1003000011151119812983123B08F8007808B900EA
:10031000A330B9053808B9040E30BA003908BB005B
:100320008316111411189229D0308312BC00462173
:100330003A08BC0046213B08BC0046218316111533
:100340001119A02983128A110A12122B380EF700F4
:100350000F30F7057708BA003A08BB000A30BC0036
:10036000F701F8013B0803103C18F707F70CF80CED
:10037000BC18F707F70CF80C3C19F707F70CF80C4A
:10038000BC19F707F70CF80C3C1AF707F70CF80C38
:10039000BC1AF707F70CF80C3C1BF707F70CF80C26
:1003A000BC1BF707F70CF80C7808B90038080F39B0
:1003B0007807F8000800831611141118DD29D030D1
:1003C0008312BC004621BC0146218316911491186A
:1003D000E729D1308312BC0046210130F7005621B5
:1003E0007808A1000130F70056217808A2000130FA
:1003F000F70056217808A3000130F700562178084D
:10040000A4000130F70056217808A5000130F7005C
:1004100056217808A600F70156217808A700831610
:1004200011151119112A83122108B800A621780884
:10043000A1002208B800A6217808A2002308B8006D
:10044000A6217808A3002508B800A6217808A500F1
:100450002608B800A6217808A6002708B800A6211B
:100460007808A7002130F8000030F9008A110A123C
:10047000132B0B08BC008B13831603178C170C145B
:100480000000000083120313BC1B8B170318702A93
:1004900003170C087F390313BC0003170D0803135F
:1004A000BD0003170F080313BE003C08BF00B720B0
:1004B0003D0803178D0003133E0803178F00031335
:1004C0000B08BF008B13831603178C170C14000046
:1004D000000083120313BF1B8B17BB0B702A8F2ADC
:1004E00003170C0D0E0D7F390313BC0003170D0805
:1004F0000313BD0003170F080313BE003C08BF0021
:10050000B7203D0803178D0003133E0803178F0023
:100510008D0A03198F0A03100313BB0B392A8A11A2
:100520000A12382B3E08F8013D0203189A2A3D08AA
:10053000F700A62AF7010830BF00BD0DF70D3E08F1
:1005400077020318F700F80DBF0B9D2A0800780802
:100550003B08BD006430BE0092227708BB007808DB
:100560003030031DBA2ABC1CC12ABC19C12A3C1A4E
:100570002030BD2ABC113C123C14F8077808BF009B
:10058000B7203B08BD000A30BE0092227708BB00AE
:1005900078083030031DD22ABC19D62A3C1CD62A32
:1005A0003C1A2030F8077808BF00B7203030BB076E
:1005B0003B08BF00B720080003081F398300FF3045
:1005C000A000A0152008831687008312201620089B
:1005D00083168700313093002830831294008316ED
:1005E000941714131F149F141F159F1107309C009C
:1005F000831364308312C0001E207A286430C00048
:100600001E200C3003178D0000308F000313EE28DE
:100610000430B800FA30C0001E20B80B0A2B40305E
:10062000B8006629DB297908B7007808B6000230DF
:10063000360784008313371883170008B800013089
:10064000360784008313371883170008B90036086B
:1006500084008313371883170008BA001330031778
:100660008D0000308F00031007300313BB00392AC0
:100670003808BB000130BC00A7223A30BF00B720C9
:100680003908BB000130BC00A7223A30BF00B720B8
:100690003A08BB000130BC00A7220230B8009630F7
:0C06A000C0001E20B80B4F2B122B630073
:02400E00323F3F
:00000001FF
;PIC16F877A
;CRC=3AF5  CREATED="11-out-22 03:53"
