:1000000003308A002D2B0000FF00030E8301A100A6
:100010000A08A0008A010408A2007708A300780853
:10002000A4007908A5007A08A60003170D08031399
:10003000A70003170F080313A80003170C080313E6
:10004000A90003170E080313AA00831383128B1E43
:100050002B280B194C28220884002308F7002408B9
:10006000F8002508F9002608FA00270803178D0074
:100070000313280803178F000313290803178C00A4
:1000800003132A0803178E00031320088A00210E89
:100090008300FF0E7F0E09008A110A126B280A10D6
:1000A0008A100A11820728340F34013406343E3096
:1000B00084008313000803196A280630F800F7014A
:1000C000F70B6028F80B5F287B30F700F70B6628EA
:1000D000800B5D2808008B120F30BB00BC01BD01F6
:1000E0003B083C02031C7728BB08031D8C29BD0874
:1000F000031D8C29831606108312061083168610A2
:100100008312861483160611831206158316861130
:10011000831286150530BE005720831606168312FB
:10012000061A9928831606168312061E9228313065
:10013000BD00831686168312861AA5288316861696
:100140008312861E9E283430BD0083160617831244
:10015000061BB128831606178312061FAA283730FC
:10016000BD00831686178312861BBD28831686174B
:100170008312861FB6282A30BD008316061083120C
:1001800006148316861083128610831606118312B6
:10019000061583168611831286150530BE0057207A
:1001A000831606168312061ADC2883160616831297
:1001B000061ED5283230BD00831686168312861A95
:1001C000E828831686168312861EE1283530BD0086
:1001D000831606178312061BF4288316061783124C
:1001E000061FED283830BD00831686178312861B44
:1001F0000029831686178312861FF9283030BD0028
:100200008316061083120614831686108312861432
:100210008316061183120611831686118312861522
:100220000530BE005720831606168312061A1F29B2
:10023000831606168312061E18293330BD00831656
:1002400086168312861A2B29831686168312861E1B
:1002500024293630BD00831606178312061B372962
:10026000831606178312061F30293930BD00831606
:1002700086178312861B4329831686178312861FCF
:100280003C292330BD008316061083120614831602
:1002900086108312861483160611831206158316A0
:1002A0008611831286110530BE005720831606166C
:1002B0008312061A6229831606168312061E5B290C
:1002C0004130BD00831686168312861A6E29831666
:1002D00086168312861E67294230BD0083160617D4
:1002E0008312061B7A29831606178312061F7329A9
:1002F0004330BD00831686178312861B862983161A
:1003000086178312861F7F294430BD000130BE004E
:1003100057200530BC077028BD08031D9129FF3008
:10032000BD003D08F8007808AC008B160B118A114F
:100330000A122B288C24C6265410321832190000B9
:100340000C1020102010D422432641224F102010E0
:10035000201000010C21753AF4376E10A531000011
:100360003A18B4290812B529081683160812831200
:10037000BA18BC298812BD298816831688128312E0
:100380003A19C4290813C5290817831608138312BC
:10039000BA19CC298813CD29881783168813891098
:1003A000831289148316891083128910080083161A
:1003B000091183120911B708031DE0290911E12968
:1003C000091583160911A630F700F70BE52900007F
:1003D000891083128910380EB9000F30B905390819
:1003E000BA00B02138080F39B900BA00B0210800AE
:1003F0008316081283120812831688128312881239
:100400008316081383120813831688138312881324
:10041000831609118312091183168910831289101A
:10042000AB018B1BAB178B130F30BE005720AB1BE0
:100430008B170130AE002E08033C031C2D2A03301D
:10044000BA00B021AB018B1BAB178B130530BE007C
:100450005720AB1B8B17AE0A1B2A0230BA00B02103
:10046000AE012E08033C031C3E2A2E084F20AF008D
:10047000B7012F08B800D721AE0A312A8A110A1213
:100480004E2B32080C3A03194F2A063A03195D2AFB
:10049000073A03195D2A053A0319732A782AB70126
:1004A0000130B800D721AB018B1BAB178B13023087
:1004B000BE005720AB1B8B177D2A0130B3000230E2
:1004C000B400340B642A672A4030B500682AB501AD
:1004D00001303302B50735088038B600B701360859
:1004E000B800D7217D2AB7011030B800D7217D2A66
:1004F0000130B7003208B800D72108000B08AE0061
:100500008B13831603178C170C1400000000831242
:100510000313AE1B8B1703170C087F390319D22A5C
:100520000313AE0003170D080313AF0003170F08E2
:100530000313B0002E08B20041222F0803178D00CC
:100540000313300803178F0003130B08B1008B133C
:10055000831603178C170C1400000000831203137A
:10056000B11B8B1703170C0D0E0D7F390319D22AFF
:100570000313AE0003170D080313AF0003170F0892
:100580000313B0002E08B20041222F0803178D007C
:100590000313300803178F008D0A03198F0A031302
:1005A0007E2A0317031308000B08AF008B13831672
:1005B00003178C170C140000000083120313AF1BE9
:1005C0008B1703180B2B03170C087F390313AF008D
:1005D00003170D080313B00003170F080313B1002E
:1005E0002F08B2004122300803178D000313310891
:1005F00003178F0003130B08B2008B138316031726
:100600008C170C140000000083120313B21B8B170D
:10061000AE0B0B2B2A2B03170C0D0E0D7F3903137A
:10062000AF0003170D080313B00003170F080313DF
:10063000B1002F08B2004122300803178D000313C8
:10064000310803178F008D0A03198F0A0310031353
:10065000AE0BD42A8A110A128C2B03081F3983008F
:10066000AD0183161F149F141F159F1107309C00A6
:100670008313F03086000108C039073881008312E7
:100680000B118B16C0308B04AB018B1BAB178B137C
:100690006430BE005720AB1B8B17F829AB018B1BB6
:1006A000AB178B136430BE005720AB1B8B179A30EF
:1006B00003178D0001308F0003137E220430AE003B
:1006C000AB018B1BAB178B13FA30BE005720AB1B53
:1006D0008B17AE0B602BA03003178D0001308F00FD
:1006E00003137E220830AE00AB018B1BAB178B13BC
:1006F000FA30BE005720AB1B8B17AE0B742B2C0FA0
:10070000822B8F2BAA3003178D0001308F0003102E
:1007100008300313AE00D42A2C08B2004122FF3067
:10072000AC0083168810023083128806AB018B1B45
:10073000AB178B137830BE005720AB1B8B177F2B6A
:02074000630054
:02400E00323F3F
:00000001FF
;PIC16F877A
;CRC=A033  CREATED="10-out-22 01:37"
