:1000000000308A001A280000223084008313000880
:10001000031917280630F800F701F70B0D28F80B25
:100020000C287B30F700F70B1328800B0A288A1165
:100030000A123A2803081F39830083161F149F14DD
:100040001F159F1107309C0083131F109F141F154D
:100050009F151F1783121F139F1783169F13831259
:100060001F140030F8001F08C73978049F000130C2
:10007000A200042883168512831285128316860136
:10008000831286011F151F1943281E08A10083161D
:10009000880183122108880021087E3C03189628D5
:1000A0002108EE3C031C962821088E3C031C5E2888
:1000B00083168601013083128600952821089E3C14
:1000C000031C682883168601063083128600952853
:1000D0002108AE3C031C722883168601023083126D
:1000E000860095282108BE3C031C7C2883168601C7
:1000F00005308312860095282108CE3C031C8628F3
:100100008316860103308312860095282108DE3C81
:10011000031C9028831686010430831286009528DC
:10012000831686010730831286009A28831686017B
:080130008312860142286300DE
:02400E00723FFF
:00000001FF
;PIC16F877A
;CRC=9E3A  CREATED="01-set-22 20:27"
