:1000000003308A00582B0000FF00030E8301A1007B
:100010000A08A0008A010408A2007708A300780853
:10002000A4007908A5007A08A60003170D08031399
:10003000A70003170F080313A80003170C080313E6
:10004000A90003170E080313AA00831383128B1D44
:100050002B280B184C28220884002308F7002408BA
:10006000F8002508F9002608FA00270803178D0074
:100070000313280803178F000313290803178C00A4
:1000800003132A0803178E00031320088A00210E89
:100090008300FF0E7F0E09008A110A126B280A10D6
:1000A0008A100A11820728340F34013406343D3097
:1000B00084008313000803196A280630F800F7014A
:1000C000F70B6028F80B5F287B30F700F70B6628EA
:1000D000800B5D2808000B10831608100130831276
:1000E0008806831606168312061E85288316861632
:1000F0008312861E8528831606178312061F8528FD
:10010000831686178312861BBE290F30BA00BB01E7
:10011000BC013A083B02031C9028BA08031DA5291C
:10012000BC08031DA529831606108312061083162A
:100130008610831286148316061183120615831601
:100140008611831286150530BD00572083160616CA
:100150008312061AB228831606168312061EAB28CF
:100160003130BC00831686168312861ABE28831689
:1001700086168312861EB7283430BC0083160617F5
:100180008312061BCA28831606178312061FC3286C
:100190003730BC00831686178312861BD628831639
:1001A00086178312861FCF282A30BC0083160610BC
:1001B0008312061483168610831286108316061186
:1001C0008312061583168611831286150530BD002D
:1001D0005720831606168312061AF528831606166C
:1001E0008312061EEE283230BC0083168616831258
:1001F000861A0129831686168312861EFA28353040
:10020000BC00831606178312061B0D2983160617DA
:100210008312061F06293830BC0083168617831206
:10022000861B1929831686178312861F12293030E0
:10023000BC008316061083120614831686108312E0
:1002400086148316061183120611831686118312F3
:1002500086150530BD005720831606168312061A30
:100260003829831606168312061E31293330BC0046
:10027000831686168312861A4429831686168312DD
:10028000861E3D293630BC00831606178312061BD6
:100290005029831606178312061F49293930BC00DE
:1002A000831686178312861B5C2983168617831292
:1002B000861F55292330BC008316061083120614AE
:1002C0008316861083128614831606118312061570
:1002D00083168611831286110530BD0057208316C0
:1002E00006168312061A7B29831606168312061E2B
:1002F00074294130BC00831686168312861A87291A
:10030000831686168312861E80294230BC0083160F
:1003100006178312061B9329831606178312061FDE
:100320008C294330BC00831686178312861B9F29B5
:10033000831686178312861F98294430BC0001302B
:10034000BD0057200530BB078928BC08031DAA291A
:10035000FF30BC003C08F8007808AC00831606109B
:1003600083120610831686108312861083160611D8
:100370008312061183168611831286110B108A11BF
:100380000A122B288C24C626541032183219000069
:100390000C1020102010D422432641224F10201090
:1003A000201000018C29E13472000C21753AF437D9
:1003B0006E10A53100003918DF290812E02908164F
:1003C000831608128312B918E7298812E8298816BB
:1003D0008316881283123919EF290813F029081798
:1003E000831608138312B919F7298813F829881777
:1003F0008316881389108312891483168910831237
:10040000891008008316091183120911B608031D0B
:100410000B2A09110C2A091583160911A630F700B9
:10042000F70B102A0000891083128910370EB800CC
:100430000F30B8053808B900DB2137080F39B8008C
:10044000B900DB21080083160812831208128316F4
:1004500088128312881283160813831208138316D6
:1004600088138312881383160911831209118316C6
:10047000891083128910AB018B1BAB178B130F30C4
:10048000BD005720AB1B8B170130AD002D08033C7E
:10049000031C582A0330B900DB21AB018B1BAB17BF
:1004A0008B130530BD005720AB1B8B17AD0A462AB6
:1004B0000230B900DB21AD012D08033C031C692A81
:1004C0002D084F20AE00B6012E08B7000222AD0A5B
:1004D0005C2A8A110A12832B31080C3A03197A2AF2
:1004E000063A0319882A073A0319882A053A031994
:1004F0009E2AA32AB6010130B7000222AB018B1B52
:10050000AB178B130230BD005720AB1B8B17A82AEB
:100510000130B2000230B300330B8F2A922A4030F0
:10052000B400932AB40101303202B4073408803891
:10053000B500B6013508B7000222A82AB60110306E
:10054000B7000222A82A0130B6003108B700022203
:1005500008000B08AD008B13831603178C170C14BF
:100560000000000083120313AD1B8B1703170C0848
:100570007F390319FD2A0313AD0003170D08031378
:10058000AE0003170F080313AF002D08B1006C2253
:100590002E0803178D0003132F0803178F00031372
:1005A0000B08B0008B13831603178C170C14000074
:1005B000000083120313B01B8B1703170C0D0E0DD5
:1005C0007F390319FD2A0313AD0003170D08031328
:1005D000AE0003170F080313AF002D08B1006C2203
:1005E0002E0803178D0003132F0803178F008D0AA1
:1005F00003198F0A0313A92A0317031308000B0812
:10060000AE008B13831603178C170C140000000028
:1006100083120313AE1B8B170318362B03170C081A
:100620007F390313AE0003170D080313AF00031740
:100630000F080313B0002E08B1006C222F08031717
:100640008D000313300803178F0003130B08B1004C
:100650008B13831603178C170C14000000008312F1
:100660000313B11B8B17AD0B362B552B03170C0D3A
:100670000E0D7F390313AE0003170D080313AF00EF
:1006800003170F080313B0002E08B1006C222F08C7
:1006900003178D000313300803178F008D0A031909
:1006A0008F0A03100313AD0BFF2A8A110A12CD2BF8
:1006B00003081F39830083161F149F141F159F11F1
:1006C00007309C008313F0308600811306108312DC
:1006D0000610831686108312861083160611831265
:1006E000061183168611831286110B108B15C030EC
:1006F0008B04AB018B1BAB178B136430BD005720F1
:10070000AB1B8B17232AAB018B1BAB178B136430EE
:10071000BD005720AB1B8B17C23003178D00013073
:100720008F000313A9220430AD00AB018B1BAB1764
:100730008B13FA30BD005720AB1B8B17AD0B952BDD
:10074000C83003178D0001308F000313A922043035
:10075000AD00AB018B1BAB178B13FA30BD005720DC
:10076000AB1B8B17AD0BA92B2C0FB72BD02B2C0849
:10077000233C031DC32BD23003178D0001308F00A3
:100780000313A922D02BD53003178D0001308F0021
:10079000031008300313AD00FF2A2C08B1006C22AF
:1007A00083168810023083128806FF30AC00AB013C
:1007B0008B1BAB178B13C830BD005720AB1B8B179F
:0407C000B42B6300F3
:02400E00323F3F
:00000001FF
;PIC16F877A
;CRC=9BA8  CREATED="11-out-22 16:54"
