:1000000000308A0069280000FF00030E8301A10070
:100010000A08A0008A010408A2007708A300780853
:10002000A4007908A5007A08A600831383128B1D0B
:100030001B280B182C28220884002308F70024080A
:10004000F8002508F9002608FA0020088A00210E89
:100050008300FF0E7F0E09008A110A122F288316D3
:100060008810023083128806831606168312061E35
:100070004828831686168312861E4828831606177C
:100080008312061F4828831686178312861B4F2863
:1000900027122708831687001030831287060B105B
:1000A0008A110A121B2829308400831300080319BF
:1000B00066280630F800F701F70B5C28F80B5B2880
:1000C0007B30F700F70B6228800B59288A110A123F
:1000D0009A2803081F398300FF30A70083161F14D6
:1000E0009F141F159F1107309C008313F03086006A
:1000F0008113081083120814831606108312061049
:100100008316861083128610831606118312061139
:1001100083168611831286110B108B15C0308B0449
:10012000831608100130831288060230A800FA30C6
:0C013000A9005328A80B97289028630012
:02400E00323F3F
:00000001FF
;PIC16F877A
;CRC=FD85  CREATED="11-out-22 00:53"
