:1000000000308A002D2800003208F8013102031860
:100010000C283108F7001828F7010830B300B10D9B
:10002000F70D320877020318F700F80DB30B0F280D
:100030000800313084008313000803192C2806308F
:10004000F800F701F70B2228F80B21287B30F70086
:10005000F70B2828800B1F28080003081F3983008E
:1000600083161F149F141F159F1107309C008313C4
:100070003F308312A1000630A2005B30A3004F3056
:10008000A4006630A5006D30A6007D30A7000730C3
:10009000A8007F30A9006F30AA0083168512831252
:1000A0008516831605128312051683168511831291
:1000B000851183160511831205110930AD002D0835
:1000C0005C3C031CA6282D08B1000A30B2000420B5
:1000D0007808AC002D08B1000A30B200042077087F
:1000E000AB00AE012E081E3C031CA428831605128B
:1000F0008312051221302B07840083130008B100FE
:1001000083168801831231088800831685128312B2
:1001100085160530B10019208316851283128512C9
:1001200021302C07840083130008B1008316880156
:1001300083123108880083160512831205160530D4
:10014000B1001920AE0A7228AD0A5F285C30AF00FA
:100150002F08083C0318EF282F08B1000A30B2001E
:1001600004207808AC002F08B1000A30B200042047
:100170007708AB00B00130081E3C031CED28831645
:1001800005128312051221302B0784008313000807
:10019000B100831688018312310888008316851206
:1001A000831285160530B10019208316851283123B
:1001B000851221302C07840083130008B1008316B8
:1001C00088018312310888008316051283120516F0
:1001D0000530B1001920B00ABB28AF03A8285D285C
:0201E0006300BA
:02400E00723FFF
:00000001FF
;PIC16F877A
;CRC=9E34  CREATED="23-jul-22 01:09"
