:1000000007308A002B2F0000223084008313000861
:10001000031917280630F800F701F70B0D28F80B25
:100020000C287B30F700F70B1328800B0A288A1165
:100030000A124B2F8E30F7005708F8005608F900C7
:10004000FA01F808031D2E287908F800F901083094
:10005000F702F808031D2E28F70136280310F81BB5
:100060003528F90DF80DF7032E28F81308004B0872
:100070000319FC28D7004F080319FC28D702031CDA
:1000800046287F30D7070318FC284C288130D70238
:10009000031CFC280319FC285708F700F801F90194
:1000A000FA01D6014C08D500D5174D08D4004E08EA
:1000B000D3001930D7005208D30203186F2801303B
:1000C000D40203186F28D50203186F28D60203182C
:1000D0006F28D60AD50AD40A5208D307A128510896
:1000E000D40203188A280130D50203188A28D602C0
:1000F00003188A28D60AD50A5108D4075208D3070C
:10010000031CA128D40A031DA128D50A031DA12878
:10011000D60AA12850088038D5020318A02801303B
:10012000D6020318A028D60A50088038D5075108EF
:10013000D407031C7E28D50A031D7E28D60A7E28F4
:100140007A14D70BA428AF280310D30DD40DD50DE6
:10015000D60D0310FA0DF90DF80DD80D5B28581CBB
:10016000B7280310F80CF90CFA0CD80CBA28F703CE
:100170000319FC28D81BE3280310D30DD40DD50D8B
:10018000D60D5208D3020318CF280130D402031829
:10019000CF28D5020318CF28D602031CF228510815
:1001A000D4020318DA280130D5020318DA28D6025F
:1001B000031CF22850088038D5020318E3280130C8
:1001C000D602031CF228FA0A031DF228F90A031DBD
:1001D000F228F80A031DF228F70A0319FC28F80C84
:1001E000F90CFA0C4C08D7005008D706D71FFA288C
:1001F000F8170029F8130029F701F801F901FA01AD
:10020000080080308318DB06E001E1015708DF00B9
:100210005B08DF0656080319F129DE00F7005A08CB
:100220000319FA29DE0203199629031C54295B08D5
:10023000E400E4175C08E3005D08E200E10103105C
:10024000E40CE30CE20CE10CDE0B1E29DF1F2B2972
:1002500060140E2A60105E106016593084008313FB
:10026000232A6012DF1B3E295E1C4929E40CE30CA3
:10027000E20CE10CF70A0319092A4929E41B4C296D
:100280000310E10DE20DE30DE40DF7030319092A54
:100290003E296017B62960135708DF00DF1F522977
:1002A000E417022AE413022A5A08DE00F70056086F
:1002B000DE025708E400E4175808E3005908E2009A
:1002C000E1010310E40CE30CE20CE10CDE0B60290D
:1002D000DF1F6D29E0140E2AE0105E10E0165D307D
:1002E00084008313232AE012DF1B80295E1C8B29E4
:1002F000E40CE30CE20CE10CF70A0319092A8B2940
:10030000E41B8E290310E10DE20DE30DE40DF7036C
:100310000319092A8029E017B629E0135B08DF00DA
:10032000DF1F9429E417022AE413022A5B08E40081
:10033000E4175C08E3005D08E200DF1FA329E41373
:1003400060150E2A6011E1015E105930840083139C
:10035000232ADF1BCC295708DF005E1CB629E40CDA
:10036000E30CE20CE10CF70A0319092AE11FC72983
:10037000E20A031DC729E30A031DC729E40A031D76
:10038000C729E40CE30CE20CF70A0319092A601BE5
:100390004B29E01B8D29EB298030E406E41FD4298A
:1003A0000E2A5B08DF00E1295708DF00E408031D7F
:1003B000E129E308031DE129E208031DE129F70112
:1003C000022AE41BEB290310E10DE20DE30DE40D1D
:1003D000F70BE129092ADF1FEF29E417022AE413AA
:1003E000022A5A08F7005B08E4005C08E3005D0895
:1003F000E200022A5608F7005708E4005808E30014
:100400005908E2006408F8006308F9006208FA007D
:10041000412AF701F801F901FA01412AE101E20953
:10042000E309E409E109E10A031D1C2AE20A031DAC
:100430001C2AE30A0319E40A60182A29E0186C2927
:100440006019A229D1290008E207031C2D2AE30A1A
:10045000031D2D2AE40A03195E1484030008E30730
:10046000031C352AE40A03195E1484030008801F64
:10047000803AE40703185E14601A3129E01A7329E0
:10048000A92908008E30F7005208F7025308F90036
:100490005408F800F917F7080319592A0310F90846
:1004A000031D552AF8080319592AF90CF80CF70B03
:1004B0004E2AD31F602AF809F909F80A0319F90A24
:1004C00008005308DA005708DA06DA1F6C2A03110D
:1004D0000310D31B03149F2A5308DA005608DB00CD
:1004E0005208DB0203197A2ADA1F9F2A0308013A0D
:1004F00083009F2A5708DB005308DB020319862A72
:10050000DA1F9F2A0308013A83009F2A5808DB005C
:100510005408DB020319922ADA1F9F2A0308013AC2
:1005200083009F2A5908DB005508DB0203199E2A25
:10053000DA1F9F2A0308013A83009F2A031008004C
:1005400052080319102BDA0056080319102BDA078A
:100550000318B12A7F30DA02031C102B0319102B69
:10056000B52A8130DA070318102B5A08F700F80172
:10057000F901FA015308DE00DE175408DD005508C2
:10058000DC001830DA00DB015C1CDE2A5908FA07AF
:10059000031CD02AF90A031DD02AF80A0319DB1715
:1005A0005808F907031CD72AF80A0319DB1757085C
:1005B000D400D4175408F8070318DB17DB0DF80C28
:1005C000F90CFA0CDE0CDD0CDC0C0310DA0BC32A80
:1005D0000130F7070318102BF81BF52ADE0DFA0D72
:1005E000F90DF80DF7030319102BDE1F062BFA0A7D
:1005F000031D062BF90A031D062BF80A031D062B03
:10060000F80CF90CFA0CF70A0319102B5308DB004D
:100610005708DB06DB1F0E2BF817142BF813142BCF
:10062000F701F801F901FA01080051104508CA0064
:100630004408C9004308C8004208C7004508D5005F
:100640004408D4004308D3004208D200D901D8019D
:10065000D701D6016122031C312B51144808803A7E
:10066000C8004A08D5004908D4004808D300470804
:10067000D200D901D801D7018E30D60061220318EB
:10068000432B031D5A2B4A08D5004908D4004808BB
:10069000D3004708D20042227908D7007808D60054
:1006A0001A207A08CE007908CD007808CC007708A7
:1006B000CB00172C4A08D5004908D4004808D300BD
:1006C0004708D2008030D9009630D8001830D700C3
:1006D0009630D6006122031C0F2C4A08D500490829
:1006E000D4004808D3004708D200D901D801D70167
:1006F0007030D600A0227A08D5007908D400780896
:10070000D3007708D20042227908D0007808CF00C1
:100710004A08D5004908D4004808D3004708D20049
:10072000D901D801D7017030D600A0227A08D500AF
:100730007908D4007808D3007708D2005008D70091
:100740004F08D6001A2083145508D9005408D80041
:100750005308D7005208D6007A08DD007908DC007B
:100760007808DB007708DA000121D501D401D30134
:100770008E30D2007A08D9007908D8007808D700DE
:100780007708D600A0227A08CA007908C90078083C
:10079000C8007708C7005008D7004F08D6001A20B5
:1007A000D501D401D3018E30D2007A08D90079085E
:1007B000D8007808D7007708D600A0227A08CE00A3
:1007C0007908CD007808CC007708CB004A08D5001E
:1007D0004908D4004808D3004708D20042227908CB
:1007E000D7007808D6001A2083104E08D9004D088B
:1007F000D8004C08D7004B08D6007A08DD007908ED
:10080000DC007808DB007708DA0001217A08CE00E6
:100810007908CD007808CC007708CB00172C4A085F
:10082000CE004908CD004808CC004708CB004A0854
:10083000D5004908D4004808D3004708D200422216
:100840007908D7007808D6001A2083144A08D900FE
:100850004908D8004808D7004708D6007A08DD00C4
:100860007908DC007808DB007708DA0001217A08D3
:10087000CA007908C9007808C8007708C700511C69
:10088000442C4C08803ACC004A08D5004908D400D2
:100890004808D3004708D200D901D801D701D601B2
:1008A000612203198A2C511C6F2CC608031D6F2C62
:1008B00083144E08D9004D08D8004C08D7004B08C7
:1008C000D600DD01DC01DB017F30DA0001217A088E
:1008D000CE007908CD007808CC007708CB005118FD
:1008E0008A2C460B8A2C83104E08D9004D08D8005C
:1008F0004C08D7004B08D600DD01DC01DB017F305E
:10090000DA0001217A08CE007908CD007808CC0001
:100910007708CB004508D5004408D4004308D3002D
:100920004208D200D901D801D701D6016122031DA6
:100930009D2CCE01CD01CC01CB014B08F7004C081A
:10094000F8004D08F9004E08FA0008003508D500F7
:100950003408D4003308D3003208D200D901D801BA
:10096000D701D60161220319612D3108CE0030086C
:10097000CD002F08CC002E08CB003508D20034085B
:10098000D1003308D0003208CF0037207A08BD00EC
:100990007908BC007808BB007708BA003D08D5008C
:1009A0003C08D4003B08D3003A08D200D901D80152
:1009B000D701D6016122031C0A2D3108CE00300870
:1009C000CD002F08CC002E08CB003508D20034080B
:1009D000D1003308D0003208CF0037207A08BD009C
:1009E0007908BC007808BB007708BA003D08C10050
:1009F0003C08C0003B08BF003A08BE004108C500E3
:100A00004008C4003F08C3003E08C2000130C600D1
:100A10001523352D3108CE003008CD002F08CC002D
:100A20002E08CB003508D2003408D1003308D0009E
:100A30003208CF0037207A08BD007908BC0078085A
:100A4000BB007708BA003D08C1003C08C0003B0865
:100A5000BF003A08BE004108C5004008C4003F0876
:100A6000C3003E08C200C60115237A08B900790800
:100A7000B8007808B7007708B6003908D5003808FC
:100A8000D4003708D3003608D2003508D90034081E
:100A9000D8003308D7003208D600A02283143108CA
:100AA000D9003008D8002F08D7002E08D6007A08C1
:100AB000DD007908DC007808DB007708DA00012126
:100AC000612D08008E30F7004908F8004808F90049
:100AD000FA01C91F702DF809F909F90A0319F80A72
:100AE000F808031D7D2D7908F800F9010830F70298
:100AF000F808031D7D2DF701862D0310F81B842DAA
:100B0000F90DF80DF7037D2DC91FF81308003508FE
:100B1000B9003408B8003308B7003208B600390805
:100B2000D5003808D4003708D3003608D200D901E0
:100B3000D801D7017F30D600612203191E2FC801CA
:100B40003630C700470884008313481883177E3067
:100B5000800083143908D9003808D8003708D70036
:100B60003608D600DD01DC01DB017F30DA0001212F
:100B70007A08CA007908C9007808C8007708C70051
:100B800083103908D9003808D8003708D70036084C
:100B9000D600DD01DC01DB017F30DA0001214A08EB
:100BA000CE004908CD004808CC004708CB007A08A1
:100BB000D2007908D1007808D0007708CF0037201C
:100BC0007A08B9007908B8007808B7007708B60045
:100BD0003908D5003808D4003708D3003608D200C9
:100BE0003908D9003808D8003708D7003608D600A9
:100BF000A0227A08C5007908C4007808C3007708E5
:100C0000C2009930D5004730D4008A30D3007F30FD
:100C1000D2004508D9004408D8004308D70042084C
:100C2000D600A0227A08CA007908C9007808C8004E
:100C30007708C70083107A08D9007908D8007808A7
:100C4000D7007708D600DD01DC01DB018030DA0057
:100C500001217A08BD007908BC007808BB0077083C
:100C6000BA004C30D500F330D4003A30D3007B309A
:100C7000D2004508D9004408D8004308D7004208EC
:100C8000D600A0227A08CA007908C9007808C800EE
:100C90007708C70083107A08D9007908D800780847
:100CA000D7007708D6002B30DD009D30DC00DF3028
:100CB000DB007E30DA0001217A08C1007908C0002B
:100CC0007808BF007708BE004108D5004008D4006E
:100CD0003F08D3003E08D2004508D9004408D80098
:100CE0004308D7004208D600A0227A08CA00790833
:100CF000C9007808C8007708C70083107A08D900AF
:100D00007908D8007808D7007708D600DD01DC0123
:100D1000DB017F30DA0001217A08C1007908C000C8
:100D20007808BF007708BE003908D5003808D4001D
:100D30003708D3003608D2003D08D9003C08D80057
:100D40003B08D7003A08D600A0227A08CA007908E2
:100D5000C9007808C8007708C7007A08CE0079086B
:100D6000CD007808CC007708CB004108D2004008BD
:100D7000D1003F08D0003E08CF0037207A08BD00E0
:100D80007908BC007808BB007708BA00C801323087
:100D9000C700470884008313481883177E30000279
:100DA000C600C61FE42E4608003CC901C800C81B87
:100DB000C90362257708BE007808803ABF00790829
:100DC000C0007A08C100F22EC9014608C800C81B3D
:100DD000C90362257A08C1007908C0007808BF00FD
:100DE0007708BE004108D5004008D4003F08D30072
:100DF0003E08D2001830D9007230D8003130D70008
:100E00007E30D600A02283103D08D9003C08D800CF
:100E10003B08D7003A08D6007A08DD007908DC00E4
:100E20007808DB007708DA0001217A08BD0079082C
:100E3000BC007808BB007708BA00222FBD01BC01B6
:100E4000BB01BA013A08F7003B08F8003C08F9007A
:100E50003D08FA00080003081F39830083161F1499
:100E60009F141F159F1107309C0083131F109F10A4
:100E70001F159F111F1783121F139F1783169F1390
:100E800083121F140030F8001F08C73978049F0030
:100E90000130A20004281F151F194C2F1E08A100A5
:100EA000D7012108D6001A207A08CE007908CD0093
:100EB0007808CC007708CB00D201D101D001843072
:100EC000CF0037207A08A5007908A4007808A3008D
:100ED0007708A20083102508D9002408D800230829
:100EE000D7002208D600DD01DC01DB017E30DA000C
:100EF00001217A08D5007908D4007808D300770852
:100F0000D20042227808A100D7012108D6001A2079
:100F10007A08A5007908A4007808A3007708A20041
:100F2000A901A801A7018030A6002508AD0024086A
:100F3000AC002308AB002208AA008A15032A8A11F4
:100F40007A08D5007908D4007808D3007708D20051
:100F500042227808A10001302102A20083168801F4
:0A0F60008312220888004B2F630063
:101000003508D5003408D4003308D3003208D200A4
:101010003B30D900AA30D8003830D7007F30D60016
:101020008A11A0228A157A08D5007908D400780898
:10103000D3007708D2008A1142228A157808C200AC
:1010400043103508B9003408B8003308B700320837
:10105000B6003508D5003408D4003308D300320870
:10106000D200D901D801D701D6018A1161228A158F
:10107000031C40284314C209C20A3708803AB7004B
:10108000BD01BC01BB01BA01C5013A30C40044082E
:1010900084008313451883177F3042078000390886
:1010A000D5003808D4003708D3003608D2003B30CA
:1010B000D900AA30D8003830D7007F30D6008A1146
:1010C000A0228A157A08C7007908C6007808C500EA
:1010D0007708C400C9014208C800C81BC9038A11A7
:1010E00062258A1583144708D9004608D8004508A8
:1010F000D7004408D6007A08DD007908DC007808BB
:10110000DB007708DA008A1101218A157A08B90014
:101110007908B8007808B7007708B6007C30D500A9
:101120008830D4005930D3007230D2003908D90049
:101130003808D8003708D7003608D6008A11A02210
:101140008A157A08C7007908C6007808C5007708AC
:10115000C40083104708D9004608D8004508D700C6
:101160004408D600E030DD009730DC002630DB009C
:101170007530DA008A1101218A157A08C1007908D0
:10118000C0007808BF007708BE004108D5004008BD
:10119000D4003F08D3003E08D2003908D9003808EF
:1011A000D8003708D7003608D6008A11A0228A1541
:1011B0007A08C7007908C6007808C5007708C40017
:1011C00083104708D9004608D8004508D7004408CE
:1011D000D600C430DD001D30DC001E30DB0078306E
:1011E000DA008A1101218A157A08C1007908C00045
:1011F0007808BF007708BE004108D5004008D40039
:101200003F08D3003E08D2003908D9003808D8007A
:101210003708D7003608D6008A11A0228A157A0826
:10122000C7007908C6007808C5007708C400831095
:101230004708D9004608D8004508D7004408D6001A
:101240005E30DD005030DC006330DB007A30DA00E5
:101250008A1101218A157A08C1007908C00078082E
:10126000BF007708BE004108D5004008D4003F0801
:10127000D3003E08D2003908D9003808D800370812
:10128000D7003608D6008A11A0228A157A08C7002E
:101290007908C6007808C5007708C400831047089D
:1012A000D9004608D8004508D7004408D6001A30AF
:1012B000DD00FE30DC007530DB007C30DA008A11A6
:1012C00001218A157A08C1007908C0007808BF009A
:1012D0007708BE004108D5004008D4003F08D3007D
:1012E0003E08D2003908D9003808D8003708D7009E
:1012F0003608D6008A11A0228A157A08C700790814
:10130000C6007808C5007708C40083104708D900D4
:101310004608D8004508D7004408D6001830DD003C
:101320007230DC003130DB007E30DA008A110121BE
:101330008A157A08C1007908C0007808BF007708CC
:10134000BE003908D5003808D4003708D300360865
:10135000D2004108D9004008D8003F08D7003E0815
:10136000D6008A11A0228A158310D901D801D7018D
:101370007F30D6007A08DD007908DC007808DB00D1
:101380007708DA008A1101218A153D08D5003C084A
:10139000D4003B08D3003A08D2007A08D900790873
:1013A000D8007808D7007708D6008A11A0228A15BD
:1013B0007A08BD007908BC007808BB007708BA003D
:1013C000431CFA29CE01CD01CC017F30CB003D0872
:1013D000D2003C08D1003B08D0003A08CF008A1167
:1013E00037208A157A08BD007908BC007808BB0050
:1013F0007708BA003A08F7003B08F8003C08F90003
:101400003D08FA0008002908D5002808D40027085C
:10141000D3002608D200D901D801D701D6018A11FC
:1014200061228A15031CEA2A2D08B1002C08B0009D
:101430002B08AF002A08AE00B501B401B3017F301C
:10144000B2008A11A6248A157A08B1007908B00082
:101450007808AF007708AE003108D5003008D40016
:101460002F08D3002E08D200D901D801D701D60108
:101470008A1161228A15031DEA2A2D08B1002C0861
:10148000B0002B08AF002A08AE00B501B401B301CB
:101490008030B2008A11A6248A157A08B100790832
:1014A000B0007808AF007708AE003108D5003008EA
:1014B000D4002F08D3002E08D200D901D801D701BB
:1014C000D6018A1161228A15031DA72A2608AE00BB
:1014D0002708803AAF002808B0002908B100B500FD
:1014E0003008B4002F08B3002E08B2008A118725F7
:1014F0008A157A08B1007908B0007808AF0077083B
:10150000AE003108D5003008D4002F08D3002E08D3
:10151000D2002D08D9002C08D8002B08D7002A08A3
:10152000D6008A11A0228A157A08B1007908B00085
:101530007808AF007708AE003108B5003008B40075
:101540002F08B3002E08B20000208B2BE92A2608B2
:10155000AE002708803AAF002808B0002908B10083
:10156000B5003008B4002F08B3002E08B2008A116D
:1015700087258A157A08B1007908B0007808AF008D
:101580007708AE003108D5003008D4002F08D3000A
:101590002E08D2002D08D9002C08D8002B08D7001F
:1015A0002A08D6008A11A0228A157A08B100790883
:1015B000B0007808AF007708AE003108B5003008F9
:1015C000B4002F08B3002E08B20000208030F806C7
:1015D0008B2B8B2B2908D5002808D4002708D30093
:1015E0002608D200D901D801D701D6018A1161227B
:1015F0008A15031C2A2B2D08B1002C08B0002B08DB
:10160000AF002A08AE00B501B401B3017F30B200CB
:101610008A11A6248A157A08B1007908B0007808E2
:10162000AF007708AE003108D5003008D4002F088D
:10163000D3002E08D200D901D801D701D6018A11D2
:1016400061228A1503192A2BF701F801F901FA0121
:101650008B2B8B2B2908D5002808D4002708D30012
:101660002608D200D901D801D701D6018A116122FA
:101670008A15031D4E2B2D08D5002C08D4002B08ED
:10168000D3002A08D200D901D801D701D6018A1186
:1016900061228A1503184E2B031D872B2908B500DC
:1016A0002808B4002708B3002608B2008A1187254D
:1016B0008A157A08B1007908B0007808AF00770879
:1016C000AE003108D5003008D4002F08D3002E0812
:1016D000D2002D08D9002C08D8002B08D7002A08E2
:1016E000D6008A11A0228A157A08B1007908B000C4
:1016F0007808AF007708AE003108B5003008B400B4
:101700002F08B3002E08B20000208B2B8B2BF70183
:0C171000F801F901FA018A110A129F2F5A
:02400E00723FFF
:00000001FF
;PIC16F877A
;CRC=41B4  CREATED="12-ago-22 15:07"
