:1000000000308A003B280000FF00030E8301A1009E
:100010000A08A0008A010408A2007708A300780853
:10002000A4007908A5007A08A600831383120B1E8A
:100030001B288B182C28220884002308F70024088A
:10004000F8002508F9002608FA0020088A00210E89
:100050008300FF0E7F0E09008A110A122F288B10D1
:1000600027122708831687001030831287068B100B
:100070008A110A121B2803081F398300FF30A700CA
:1000800083161F149F141F159F1107309C008313A4
:10009000013086008810831288108316081183129D
:1000A00008118316011383128B100B16C0308B04BA
:0400B0005828630069
:02400E00323F3F
:00000001FF
;PIC16F877A
;CRC=DA5A  CREATED="01-out-22 20:27"
