:1000000000308A00132800000330AA02031C1228C3
:100010002A3084008313000803191228102810289E
:10002000800B0F28080003081F39830083161F1454
:100030009F141F159F1107309C0083138312A20188
:10004000A101A401A3010330A600E830A500A4018A
:10005000A3012408033C031C6F28031D3328230835
:10006000E83C031C6F28A201A101A208031D6B2814
:1000700021080A3C031C6B288316881083128814FD
:100080002408A700A70AA70303194A28FF30AA00DB
:10009000042043282308AA00042083168810831212
:1000A000881023082502A7002608A8002408031C9E
:1000B000240FA8022808A900A90AA9030319642883
:1000C000FF30AA0004205D282708AA000420A10A06
:1000D0000319A20A3528A30A0319A40A2928033000
:1000E000A400E730A300A201A101A208031DAB28D0
:1000F00021080A3C031CAB2883168810831288143D
:100100002408A700A70AA70303198A28FF30AA001A
:10011000042083282308AA00042083168810831251
:10012000881023082502A7002608A8002408031C1D
:10013000240FA8022808A900A90AA9030319A428C2
:10014000FF30AA0004209D282708AA000420A10A45
:100150000319A20A752823080319A403A30373280B
:0401600027286300E9
:02400E00723FFF
:00000001FF
;PIC16F877A
;CRC=B2F1  CREATED="01-ago-22 19:39"
