:1000000000308A0018280000223084008313000882
:10001000031917280630F800F701F70B0D28F80B25
:100020000C287B30F700F70B1328800B0A280800F8
:1000300003081F398300FF30A00083161F149F148C
:100040001F159F1107309C0083131F109F101F1551
:100050009F111F1383121F179F1783169F17831259
:100060001F14201220088316870083120712043001
:10007000A100FA30A2000420A10B39282012200888
:1000800083168700831207160430A100FA30A200FD
:100090000420A10B4628A010200883168700831295
:1000A00087100430A100FA30A2000420A10B5328CD
:1000B000A010200883168700831287140430A10043
:0E00C000FA30A2000420A10B60283128630052
:02400E00723FFF
:00000001FF
;PIC16F876A
;CRC=F306  CREATED="16-set-22 00:17"
