:1000000000308A003E280000FF00030E8301A1009B
:100010000A08A0008A010408A2007708A300780853
:10002000A4007908A5007A08A600831383128B1E0A
:100030001B280B192C28220884002308F700240809
:10004000F8002508F9002608FA0020088A00210E89
:100050008300FF0E7F0E09008A110A122F2827083D
:10006000A70A4D3C031D3A28831608110430831259
:100070008806A7010B118A110A121B2803081F39D1
:100080008300A70183161F149F141F159F110730AB
:100090009C0083130108C0390738810083128B1636
:1000A000C0308B0483160612831206165228630092
:02400E00723FFF
:00000001FF
;PIC16F877A
;CRC=5353  CREATED="01-ago-22 19:03"
